:100000000C9434000C9446000C9446000C9446006A
:100010000C9446000C9446000C9446000C94460048
:100020000C9446000C9446000C9446000C94460038
:100030000C9446000C9446000C9448000C94460026
:100040000C9446000C9446000C9446000C94460018
:100050000C9446000C9446000C9446000C94460008
:100060000C9446000C94460011241FBECFEFD8E03C
:10007000DEBFCDBF11E0A0E0B1E001C01D92A43011
:10008000B107E1F70E9473000C94B7000C940000D4
:100090001F920F920FB60F9211248F939F93AF93DD
:1000A000BF93DF93CF93CDB7DEB7809100019091DE
:1000B0000101A0910201B09103010196A11DB11DA2
:1000C0008093000190930101A0930201B09303017A
:1000D000CF91DF91BF91AF919F918F910F900FBE04
:1000E0000F901F901895DF93CF93CDB7DEB7E4E460
:1000F000F0E082E08083E5E4F0E083E08083E7E401
:10010000F0E089EF8083EEE6F0E082E0808378948F
:10011000A4E2B0E0E4E2F0E0808180628C93A5E2AA
:10012000B0E0E5E2F0E0808180628C938091000194
:1001300090910101A0910201B0910301843F21E05F
:10014000920720E0A20720E0B20781F71092000199
:10015000109201011092020110920301A5E2B0E099
:10016000E5E2F0E0908180E289278C93DFCFF8947C
:02017000FFCFBF
:00000001FF
