:100000000C9434000C9446000C9446000C9446006A
:100010000C9446000C9446000C9446000C94460048
:100020000C9446000C9446000C9446000C94460038
:100030000C9446000C9446000C9448000C94460026
:100040000C9446000C9446000C9446000C94460018
:100050000C9446000C9446000C9446000C94460008
:100060000C9446000C94460011241FBECFEFD8E03C
:10007000DEBFCDBF11E0A0E0B1E001C01D92A43011
:10008000B107E1F70E949F000C94D9000C94000086
:100090001F920F920FB60F9211248F939F93AF93DD
:1000A000BF93DF93CF93CDB7DEB7809100019091DE
:1000B0000101A0910201B09103010196A11DB11DA2
:1000C0008093000190930101A0930201B09303017A
:1000D000CF91DF91BF91AF919F918F910F900FBE04
:1000E0000F901F901895DF93CF9300D000D00F9200
:1000F000CDB7DEB769837A838B839C8389819A81AC
:10010000AB81BC81843F21E0920720E0A20720E080
:10011000B20759F4A5E2B0E0E5E2F0E0908180E2B8
:1001200089278C9381E08D8301C01D828D810F9082
:100130000F900F900F900F90CF91DF910895DF9364
:10014000CF93CDB7DEB7E4E4F0E082E08083E5E46E
:10015000F0E083E08083E7E4F0E089EF8083EEE67F
:10016000F0E082E080837894A4E2B0E0E4E2F0E0A2
:10017000808180628C93A5E2B0E0E5E2F0E08081CE
:1001800080628C938091000190910101A091020105
:10019000B0910301BC01CD010E947300813091F741
:1001A00010920001109201011092020110920301BD
:0601B000E9CFF894FFCF37
:00000001FF
